{
  "contractName": "OliveOilProductionChain",
  "abi": [
    {
      "inputs": [],
      "stateMutability": "nonpayable",
      "type": "constructor"
    },
    {
      "anonymous": false,
      "inputs": [
        {
          "indexed": false,
          "internalType": "uint256",
          "name": "batchId",
          "type": "uint256"
        }
      ],
      "name": "FinalizedBatch",
      "type": "event"
    },
    {
      "anonymous": false,
      "inputs": [
        {
          "indexed": false,
          "internalType": "uint256",
          "name": "batchId",
          "type": "uint256"
        }
      ],
      "name": "NewBatch",
      "type": "event"
    },
    {
      "anonymous": false,
      "inputs": [
        {
          "indexed": true,
          "internalType": "bytes32",
          "name": "role",
          "type": "bytes32"
        },
        {
          "indexed": true,
          "internalType": "bytes32",
          "name": "previousAdminRole",
          "type": "bytes32"
        },
        {
          "indexed": true,
          "internalType": "bytes32",
          "name": "newAdminRole",
          "type": "bytes32"
        }
      ],
      "name": "RoleAdminChanged",
      "type": "event"
    },
    {
      "anonymous": false,
      "inputs": [
        {
          "indexed": true,
          "internalType": "bytes32",
          "name": "role",
          "type": "bytes32"
        },
        {
          "indexed": true,
          "internalType": "address",
          "name": "account",
          "type": "address"
        },
        {
          "indexed": true,
          "internalType": "address",
          "name": "sender",
          "type": "address"
        }
      ],
      "name": "RoleGranted",
      "type": "event"
    },
    {
      "anonymous": false,
      "inputs": [
        {
          "indexed": true,
          "internalType": "bytes32",
          "name": "role",
          "type": "bytes32"
        },
        {
          "indexed": true,
          "internalType": "address",
          "name": "account",
          "type": "address"
        },
        {
          "indexed": true,
          "internalType": "address",
          "name": "sender",
          "type": "address"
        }
      ],
      "name": "RoleRevoked",
      "type": "event"
    },
    {
      "inputs": [],
      "name": "ADMIN_ROLE",
      "outputs": [
        {
          "internalType": "bytes32",
          "name": "",
          "type": "bytes32"
        }
      ],
      "stateMutability": "view",
      "type": "function",
      "constant": true
    },
    {
      "inputs": [],
      "name": "DEFAULT_ADMIN_ROLE",
      "outputs": [
        {
          "internalType": "bytes32",
          "name": "",
          "type": "bytes32"
        }
      ],
      "stateMutability": "view",
      "type": "function",
      "constant": true
    },
    {
      "inputs": [],
      "name": "FARMER_ROLE",
      "outputs": [
        {
          "internalType": "bytes32",
          "name": "",
          "type": "bytes32"
        }
      ],
      "stateMutability": "view",
      "type": "function",
      "constant": true
    },
    {
      "inputs": [],
      "name": "ONH_ROLE",
      "outputs": [
        {
          "internalType": "bytes32",
          "name": "",
          "type": "bytes32"
        }
      ],
      "stateMutability": "view",
      "type": "function",
      "constant": true
    },
    {
      "inputs": [],
      "name": "PRESSING_ROLE",
      "outputs": [
        {
          "internalType": "bytes32",
          "name": "",
          "type": "bytes32"
        }
      ],
      "stateMutability": "view",
      "type": "function",
      "constant": true
    },
    {
      "inputs": [],
      "name": "TRANSPORTER_ROLE",
      "outputs": [
        {
          "internalType": "bytes32",
          "name": "",
          "type": "bytes32"
        }
      ],
      "stateMutability": "view",
      "type": "function",
      "constant": true
    },
    {
      "inputs": [
        {
          "internalType": "uint256",
          "name": "",
          "type": "uint256"
        }
      ],
      "name": "batches",
      "outputs": [
        {
          "components": [
            {
              "internalType": "string",
              "name": "farmer",
              "type": "string"
            },
            {
              "internalType": "string",
              "name": "date",
              "type": "string"
            },
            {
              "internalType": "string",
              "name": "location",
              "type": "string"
            },
            {
              "internalType": "string",
              "name": "method",
              "type": "string"
            },
            {
              "internalType": "uint256",
              "name": "quantity",
              "type": "uint256"
            },
            {
              "internalType": "string",
              "name": "variety",
              "type": "string"
            }
          ],
          "internalType": "struct OliveOilProductionChain.Harvesting",
          "name": "harvesting",
          "type": "tuple"
        },
        {
          "components": [
            {
              "internalType": "uint256",
              "name": "duration",
              "type": "uint256"
            },
            {
              "internalType": "string",
              "name": "conditions",
              "type": "string"
            },
            {
              "internalType": "string",
              "name": "transporterId",
              "type": "string"
            },
            {
              "internalType": "string",
              "name": "vehicleType",
              "type": "string"
            }
          ],
          "internalType": "struct OliveOilProductionChain.Transportation",
          "name": "transportation",
          "type": "tuple"
        },
        {
          "components": [
            {
              "internalType": "uint256",
              "name": "duration",
              "type": "uint256"
            },
            {
              "internalType": "string",
              "name": "pressingId",
              "type": "string"
            },
            {
              "internalType": "string",
              "name": "conditions",
              "type": "string"
            },
            {
              "internalType": "uint256",
              "name": "temperature",
              "type": "uint256"
            },
            {
              "internalType": "uint256",
              "name": "humidity",
              "type": "uint256"
            },
            {
              "internalType": "uint256",
              "name": "goodOlives",
              "type": "uint256"
            },
            {
              "internalType": "uint256",
              "name": "badOlives",
              "type": "uint256"
            }
          ],
          "internalType": "struct OliveOilProductionChain.StorageBeforePressing",
          "name": "storageBeforePressing",
          "type": "tuple"
        },
        {
          "components": [
            {
              "internalType": "string",
              "name": "date",
              "type": "string"
            },
            {
              "internalType": "string",
              "name": "pressingId",
              "type": "string"
            },
            {
              "internalType": "string",
              "name": "facility",
              "type": "string"
            },
            {
              "internalType": "string",
              "name": "method",
              "type": "string"
            },
            {
              "internalType": "string",
              "name": "conditions",
              "type": "string"
            },
            {
              "internalType": "uint256",
              "name": "temperature",
              "type": "uint256"
            },
            {
              "internalType": "uint256",
              "name": "pressure",
              "type": "uint256"
            },
            {
              "internalType": "string",
              "name": "operatorName",
              "type": "string"
            }
          ],
          "internalType": "struct OliveOilProductionChain.PressingProcess",
          "name": "pressingProcess",
          "type": "tuple"
        },
        {
          "components": [
            {
              "internalType": "string",
              "name": "tankId",
              "type": "string"
            },
            {
              "internalType": "string",
              "name": "pressingId",
              "type": "string"
            },
            {
              "internalType": "uint256",
              "name": "duration",
              "type": "uint256"
            },
            {
              "internalType": "string",
              "name": "conditions",
              "type": "string"
            },
            {
              "internalType": "uint256",
              "name": "temperature",
              "type": "uint256"
            },
            {
              "internalType": "uint256",
              "name": "humidity",
              "type": "uint256"
            },
            {
              "internalType": "bool",
              "name": "inertAtmosphere",
              "type": "bool"
            }
          ],
          "internalType": "struct OliveOilProductionChain.StorageAfterPressing",
          "name": "storageAfterPressing",
          "type": "tuple"
        },
        {
          "components": [
            {
              "internalType": "string",
              "name": "lab",
              "type": "string"
            },
            {
              "internalType": "string",
              "name": "onhId",
              "type": "string"
            },
            {
              "internalType": "uint256",
              "name": "acidity",
              "type": "uint256"
            },
            {
              "internalType": "string",
              "name": "quality",
              "type": "string"
            },
            {
              "internalType": "string",
              "name": "area",
              "type": "string"
            },
            {
              "internalType": "uint256",
              "name": "peroxideValue",
              "type": "uint256"
            },
            {
              "internalType": "bool",
              "name": "certifiedOrganic",
              "type": "bool"
            }
          ],
          "internalType": "struct OliveOilProductionChain.QualityCheck",
          "name": "qualityCheck",
          "type": "tuple"
        },
        {
          "internalType": "bool",
          "name": "isFinalized",
          "type": "bool"
        }
      ],
      "stateMutability": "view",
      "type": "function",
      "constant": true
    },
    {
      "inputs": [
        {
          "internalType": "address",
          "name": "",
          "type": "address"
        },
        {
          "internalType": "uint256",
          "name": "",
          "type": "uint256"
        }
      ],
      "name": "farmerBatches",
      "outputs": [
        {
          "internalType": "uint256",
          "name": "",
          "type": "uint256"
        }
      ],
      "stateMutability": "view",
      "type": "function",
      "constant": true
    },
    {
      "inputs": [
        {
          "internalType": "bytes32",
          "name": "role",
          "type": "bytes32"
        }
      ],
      "name": "getRoleAdmin",
      "outputs": [
        {
          "internalType": "bytes32",
          "name": "",
          "type": "bytes32"
        }
      ],
      "stateMutability": "view",
      "type": "function",
      "constant": true
    },
    {
      "inputs": [
        {
          "internalType": "bytes32",
          "name": "role",
          "type": "bytes32"
        },
        {
          "internalType": "address",
          "name": "account",
          "type": "address"
        }
      ],
      "name": "grantRole",
      "outputs": [],
      "stateMutability": "nonpayable",
      "type": "function"
    },
    {
      "inputs": [
        {
          "internalType": "bytes32",
          "name": "role",
          "type": "bytes32"
        },
        {
          "internalType": "address",
          "name": "account",
          "type": "address"
        }
      ],
      "name": "hasRole",
      "outputs": [
        {
          "internalType": "bool",
          "name": "",
          "type": "bool"
        }
      ],
      "stateMutability": "view",
      "type": "function",
      "constant": true
    },
    {
      "inputs": [
        {
          "internalType": "bytes32",
          "name": "role",
          "type": "bytes32"
        },
        {
          "internalType": "address",
          "name": "account",
          "type": "address"
        }
      ],
      "name": "renounceRole",
      "outputs": [],
      "stateMutability": "nonpayable",
      "type": "function"
    },
    {
      "inputs": [
        {
          "internalType": "bytes32",
          "name": "role",
          "type": "bytes32"
        },
        {
          "internalType": "address",
          "name": "account",
          "type": "address"
        }
      ],
      "name": "revokeRole",
      "outputs": [],
      "stateMutability": "nonpayable",
      "type": "function"
    },
    {
      "inputs": [
        {
          "internalType": "bytes4",
          "name": "interfaceId",
          "type": "bytes4"
        }
      ],
      "name": "supportsInterface",
      "outputs": [
        {
          "internalType": "bool",
          "name": "",
          "type": "bool"
        }
      ],
      "stateMutability": "view",
      "type": "function",
      "constant": true
    },
    {
      "inputs": [
        {
          "internalType": "string",
          "name": "farmer",
          "type": "string"
        },
        {
          "internalType": "string",
          "name": "harvestDate",
          "type": "string"
        },
        {
          "internalType": "string",
          "name": "location",
          "type": "string"
        },
        {
          "internalType": "string",
          "name": "method",
          "type": "string"
        },
        {
          "internalType": "uint256",
          "name": "quantity",
          "type": "uint256"
        },
        {
          "internalType": "string",
          "name": "variety",
          "type": "string"
        }
      ],
      "name": "createBatch",
      "outputs": [
        {
          "internalType": "uint256",
          "name": "batchId",
          "type": "uint256"
        }
      ],
      "stateMutability": "nonpayable",
      "type": "function"
    },
    {
      "inputs": [
        {
          "internalType": "uint256",
          "name": "batchId",
          "type": "uint256"
        },
        {
          "internalType": "uint256",
          "name": "duration",
          "type": "uint256"
        },
        {
          "internalType": "string",
          "name": "conditions",
          "type": "string"
        },
        {
          "internalType": "string",
          "name": "transporterId",
          "type": "string"
        },
        {
          "internalType": "string",
          "name": "vehicleType",
          "type": "string"
        }
      ],
      "name": "logTransportation",
      "outputs": [],
      "stateMutability": "nonpayable",
      "type": "function"
    },
    {
      "inputs": [
        {
          "internalType": "uint256",
          "name": "batchId",
          "type": "uint256"
        },
        {
          "internalType": "string",
          "name": "pressingId",
          "type": "string"
        },
        {
          "internalType": "uint256",
          "name": "duration",
          "type": "uint256"
        },
        {
          "internalType": "string",
          "name": "conditions",
          "type": "string"
        },
        {
          "internalType": "uint256",
          "name": "temperature",
          "type": "uint256"
        },
        {
          "internalType": "uint256",
          "name": "humidity",
          "type": "uint256"
        },
        {
          "internalType": "uint256",
          "name": "goodOlives",
          "type": "uint256"
        },
        {
          "internalType": "uint256",
          "name": "badOlives",
          "type": "uint256"
        }
      ],
      "name": "logStorageBeforePressing",
      "outputs": [],
      "stateMutability": "nonpayable",
      "type": "function"
    },
    {
      "inputs": [
        {
          "internalType": "uint256",
          "name": "batchId",
          "type": "uint256"
        },
        {
          "internalType": "string",
          "name": "pressingId",
          "type": "string"
        },
        {
          "internalType": "string",
          "name": "date",
          "type": "string"
        },
        {
          "internalType": "string",
          "name": "facility",
          "type": "string"
        },
        {
          "internalType": "string",
          "name": "method",
          "type": "string"
        },
        {
          "internalType": "string",
          "name": "conditions",
          "type": "string"
        },
        {
          "internalType": "uint256",
          "name": "temperature",
          "type": "uint256"
        },
        {
          "internalType": "uint256",
          "name": "pressure",
          "type": "uint256"
        },
        {
          "internalType": "string",
          "name": "operatorName",
          "type": "string"
        }
      ],
      "name": "logPressingProcess",
      "outputs": [],
      "stateMutability": "nonpayable",
      "type": "function"
    },
    {
      "inputs": [
        {
          "internalType": "uint256",
          "name": "batchId",
          "type": "uint256"
        },
        {
          "internalType": "string",
          "name": "pressingId",
          "type": "string"
        },
        {
          "internalType": "string",
          "name": "tankId",
          "type": "string"
        },
        {
          "internalType": "uint256",
          "name": "duration",
          "type": "uint256"
        },
        {
          "internalType": "string",
          "name": "conditions",
          "type": "string"
        },
        {
          "internalType": "uint256",
          "name": "temperature",
          "type": "uint256"
        },
        {
          "internalType": "uint256",
          "name": "humidity",
          "type": "uint256"
        },
        {
          "internalType": "bool",
          "name": "inertAtmosphere",
          "type": "bool"
        }
      ],
      "name": "logStorageAfterPressing",
      "outputs": [],
      "stateMutability": "nonpayable",
      "type": "function"
    },
    {
      "inputs": [
        {
          "internalType": "uint256",
          "name": "batchId",
          "type": "uint256"
        },
        {
          "internalType": "string",
          "name": "onhId",
          "type": "string"
        },
        {
          "internalType": "string",
          "name": "lab",
          "type": "string"
        },
        {
          "internalType": "uint256",
          "name": "acidityScaled",
          "type": "uint256"
        },
        {
          "internalType": "string",
          "name": "quality",
          "type": "string"
        },
        {
          "internalType": "string",
          "name": "area",
          "type": "string"
        },
        {
          "internalType": "uint256",
          "name": "peroxideValueScaled",
          "type": "uint256"
        },
        {
          "internalType": "bool",
          "name": "certifiedOrganic",
          "type": "bool"
        }
      ],
      "name": "logQualityCheck",
      "outputs": [],
      "stateMutability": "nonpayable",
      "type": "function"
    },
    {
      "inputs": [
        {
          "internalType": "uint256",
          "name": "batchId",
          "type": "uint256"
        }
      ],
      "name": "getBatch",
      "outputs": [
        {
          "components": [
            {
              "components": [
                {
                  "internalType": "string",
                  "name": "farmer",
                  "type": "string"
                },
                {
                  "internalType": "string",
                  "name": "date",
                  "type": "string"
                },
                {
                  "internalType": "string",
                  "name": "location",
                  "type": "string"
                },
                {
                  "internalType": "string",
                  "name": "method",
                  "type": "string"
                },
                {
                  "internalType": "uint256",
                  "name": "quantity",
                  "type": "uint256"
                },
                {
                  "internalType": "string",
                  "name": "variety",
                  "type": "string"
                }
              ],
              "internalType": "struct OliveOilProductionChain.Harvesting",
              "name": "harvesting",
              "type": "tuple"
            },
            {
              "components": [
                {
                  "internalType": "uint256",
                  "name": "duration",
                  "type": "uint256"
                },
                {
                  "internalType": "string",
                  "name": "conditions",
                  "type": "string"
                },
                {
                  "internalType": "string",
                  "name": "transporterId",
                  "type": "string"
                },
                {
                  "internalType": "string",
                  "name": "vehicleType",
                  "type": "string"
                }
              ],
              "internalType": "struct OliveOilProductionChain.Transportation",
              "name": "transportation",
              "type": "tuple"
            },
            {
              "components": [
                {
                  "internalType": "uint256",
                  "name": "duration",
                  "type": "uint256"
                },
                {
                  "internalType": "string",
                  "name": "pressingId",
                  "type": "string"
                },
                {
                  "internalType": "string",
                  "name": "conditions",
                  "type": "string"
                },
                {
                  "internalType": "uint256",
                  "name": "temperature",
                  "type": "uint256"
                },
                {
                  "internalType": "uint256",
                  "name": "humidity",
                  "type": "uint256"
                },
                {
                  "internalType": "uint256",
                  "name": "goodOlives",
                  "type": "uint256"
                },
                {
                  "internalType": "uint256",
                  "name": "badOlives",
                  "type": "uint256"
                }
              ],
              "internalType": "struct OliveOilProductionChain.StorageBeforePressing",
              "name": "storageBeforePressing",
              "type": "tuple"
            },
            {
              "components": [
                {
                  "internalType": "string",
                  "name": "date",
                  "type": "string"
                },
                {
                  "internalType": "string",
                  "name": "pressingId",
                  "type": "string"
                },
                {
                  "internalType": "string",
                  "name": "facility",
                  "type": "string"
                },
                {
                  "internalType": "string",
                  "name": "method",
                  "type": "string"
                },
                {
                  "internalType": "string",
                  "name": "conditions",
                  "type": "string"
                },
                {
                  "internalType": "uint256",
                  "name": "temperature",
                  "type": "uint256"
                },
                {
                  "internalType": "uint256",
                  "name": "pressure",
                  "type": "uint256"
                },
                {
                  "internalType": "string",
                  "name": "operatorName",
                  "type": "string"
                }
              ],
              "internalType": "struct OliveOilProductionChain.PressingProcess",
              "name": "pressingProcess",
              "type": "tuple"
            },
            {
              "components": [
                {
                  "internalType": "string",
                  "name": "tankId",
                  "type": "string"
                },
                {
                  "internalType": "string",
                  "name": "pressingId",
                  "type": "string"
                },
                {
                  "internalType": "uint256",
                  "name": "duration",
                  "type": "uint256"
                },
                {
                  "internalType": "string",
                  "name": "conditions",
                  "type": "string"
                },
                {
                  "internalType": "uint256",
                  "name": "temperature",
                  "type": "uint256"
                },
                {
                  "internalType": "uint256",
                  "name": "humidity",
                  "type": "uint256"
                },
                {
                  "internalType": "bool",
                  "name": "inertAtmosphere",
                  "type": "bool"
                }
              ],
              "internalType": "struct OliveOilProductionChain.StorageAfterPressing",
              "name": "storageAfterPressing",
              "type": "tuple"
            },
            {
              "components": [
                {
                  "internalType": "string",
                  "name": "lab",
                  "type": "string"
                },
                {
                  "internalType": "string",
                  "name": "onhId",
                  "type": "string"
                },
                {
                  "internalType": "uint256",
                  "name": "acidity",
                  "type": "uint256"
                },
                {
                  "internalType": "string",
                  "name": "quality",
                  "type": "string"
                },
                {
                  "internalType": "string",
                  "name": "area",
                  "type": "string"
                },
                {
                  "internalType": "uint256",
                  "name": "peroxideValue",
                  "type": "uint256"
                },
                {
                  "internalType": "bool",
                  "name": "certifiedOrganic",
                  "type": "bool"
                }
              ],
              "internalType": "struct OliveOilProductionChain.QualityCheck",
              "name": "qualityCheck",
              "type": "tuple"
            },
            {
              "internalType": "bool",
              "name": "isFinalized",
              "type": "bool"
            }
          ],
          "internalType": "struct OliveOilProductionChain.Batch",
          "name": "",
          "type": "tuple"
        }
      ],
      "stateMutability": "view",
      "type": "function",
      "constant": true
    },
    {
      "inputs": [
        {
          "internalType": "uint256",
          "name": "batchId",
          "type": "uint256"
        }
      ],
      "name": "getHarvestDetails",
      "outputs": [
        {
          "internalType": "string",
          "name": "farmer",
          "type": "string"
        },
        {
          "internalType": "string",
          "name": "date",
          "type": "string"
        },
        {
          "internalType": "string",
          "name": "location",
          "type": "string"
        },
        {
          "internalType": "string",
          "name": "method",
          "type": "string"
        }
      ],
      "stateMutability": "view",
      "type": "function",
      "constant": true
    },
    {
      "inputs": [
        {
          "internalType": "address",
          "name": "account",
          "type": "address"
        }
      ],
      "name": "assignFarmerRole",
      "outputs": [],
      "stateMutability": "nonpayable",
      "type": "function"
    },
    {
      "inputs": [
        {
          "internalType": "address",
          "name": "account",
          "type": "address"
        }
      ],
      "name": "assignTransporterRole",
      "outputs": [],
      "stateMutability": "nonpayable",
      "type": "function"
    },
    {
      "inputs": [
        {
          "internalType": "address",
          "name": "account",
          "type": "address"
        }
      ],
      "name": "revokeFarmerRole",
      "outputs": [],
      "stateMutability": "nonpayable",
      "type": "function"
    },
    {
      "inputs": [
        {
          "internalType": "address",
          "name": "account",
          "type": "address"
        }
      ],
      "name": "revokeTransporterRole",
      "outputs": [],
      "stateMutability": "nonpayable",
      "type": "function"
    },
    {
      "inputs": [],
      "name": "getBatchCount",
      "outputs": [
        {
          "internalType": "uint256",
          "name": "",
          "type": "uint256"
        }
      ],
      "stateMutability": "view",
      "type": "function",
      "constant": true
    },
    {
      "inputs": [
        {
          "internalType": "address",
          "name": "farmer",
          "type": "address"
        }
      ],
      "name": "getBatchesByFarmer",
      "outputs": [
        {
          "internalType": "uint256[]",
          "name": "",
          "type": "uint256[]"
        }
      ],
      "stateMutability": "view",
      "type": "function",
      "constant": true
    },
    {
      "inputs": [
        {
          "internalType": "uint256",
          "name": "batchId",
          "type": "uint256"
        }
      ],
      "name": "getAcidity",
      "outputs": [
        {
          "internalType": "string",
          "name": "",
          "type": "string"
        }
      ],
      "stateMutability": "view",
      "type": "function",
      "constant": true
    },
    {
      "inputs": [
        {
          "internalType": "uint256",
          "name": "batchId",
          "type": "uint256"
        }
      ],
      "name": "getPeroxideValue",
      "outputs": [
        {
          "internalType": "string",
          "name": "",
          "type": "string"
        }
      ],
      "stateMutability": "view",
      "type": "function",
      "constant": true
    },
    {
      "inputs": [
        {
          "internalType": "string",
          "name": "transporterId",
          "type": "string"
        }
      ],
      "name": "getBatchesByTransporter",
      "outputs": [
        {
          "internalType": "uint256[]",
          "name": "",
          "type": "uint256[]"
        }
      ],
      "stateMutability": "view",
      "type": "function",
      "constant": true
    },
    {
      "inputs": [
        {
          "internalType": "string",
          "name": "pressingId",
          "type": "string"
        }
      ],
      "name": "getBatchesByPressingId",
      "outputs": [
        {
          "internalType": "uint256[]",
          "name": "",
          "type": "uint256[]"
        }
      ],
      "stateMutability": "view",
      "type": "function",
      "constant": true
    },
    {
      "inputs": [
        {
          "internalType": "string",
          "name": "onhId",
          "type": "string"
        }
      ],
      "name": "getBatchesByOnhId",
      "outputs": [
        {
          "internalType": "uint256[]",
          "name": "",
          "type": "uint256[]"
        }
      ],
      "stateMutability": "view",
      "type": "function",
      "constant": true
    }
  ],
  "bytecode": "0x6080604081815234620003375760009081805260208281528183209173b83aabf4a4679a86f988837ca87be8dd0539069892838552825260ff9283828620541615620002ff575b7fa49807205ce4d355092ef5a8a18f56e8913cf4a201fbe287825b095693c2177590818652858452828620818752845284838720541615620002c6575b50507f7c6181838a71a779e445600d4c6ecbe16bacf2b3c5bda69c29fada66d1b645d180855284835281852073013e8aae064294cf146d5743076e8f11cf4489f9908187528452848387205416156200028d575b50507fddaa901e2fe3bda354fe0ede2785152d5c109282a613fe024a056a3e66c41bb38085528483528185207306fdc58af6750d6180f11ea31cd9ea077b19acb79081875284528483872054161562000254575b50507f7bc22597b932d7034dd2d258199090b37f9a59226c150db7fa910207f1c0ff9a80855284835281852073f91acf0fb5384945c2f82f404f7f5c1856f779ca908187528452848387205416156200021b575b50507f64400d3a08c4daec65d903c105722c54dce87fceeab435cccc2cdf93dda1d95e91828552848152818520937325a1d99d5810568d9582dbf764200d499d65d5fd948587528252828620541615620001e1575b615d0086816200033d8239f35b82855284815281852090848652528320600160ff198254161790556000805160206200603d833981519152339380a43880808080620001d4565b8186528584528286208187528452828620805460ff1916600117905533916000805160206200603d8339815191528780a438806200017f565b8186528584528286208187528452828620805460ff1916600117905533916000805160206200603d8339815191528780a438806200012b565b8186528584528286208187528452828620805460ff1916600117905533916000805160206200603d8339815191528780a43880620000d7565b8186528584528286208187528452828620805460ff1916600117905533916000805160206200603d8339815191528780a4388062000083565b8480528483528185208186528352818520805460ff191660011790553381866000805160206200603d8339815191528180a462000046565b600080fdfe608080604052600436101561001357600080fd5b60003560e01c90816301ffc9a714614cd55750806305346476146145d35780632175e4f7146144e0578063242b0f0b14614495578063248a9ca3146144665780632f2ff15d146143b357806330167163146142c057806336568abe1461422e578063452180d914613de05780634eabbe7714613db757806350125a5214613d6c57806359b9911114613c5b5780635ac44282146139b457806364e3ff531461395c5780636b60a4a4146138d85780636f86207e1461389d57806375b238fc1461386257806375c3018b14611773578063781e1fad1461173b5780637baa69df146116a357806391d14854146116565780639327408e14610e805780639e2ba76314610dec578063a217fddf14610dd0578063a55ded2a14610d0e578063a8fabfa514610cf0578063b32c4d8d14610bff578063b80f820014610606578063d547741f146105c5578063d9f64628146102b1578063da6f3b73146101f3578063f0cf6fc8146101b85763f39439701461018a57600080fd5b346101b35760003660031901126101b3576020604051600080516020615cab8339815191528152f35b600080fd5b346101b35760003660031901126101b35760206040517f7bc22597b932d7034dd2d258199090b37f9a59226c150db7fa910207f1c0ff9a8152f35b346101b3576020806003193601126101b35761020d614e7d565b610215615586565b600080516020615c6b83398151915291826000526000815261023e600160406000200154615895565b600083815280825260408082206001600160a01b0390941680835293835290205460ff1661026857005b82600052600081526040600020908260005252604060002060ff19815416905533917ff6391f5c32d9c69d2a47ea670b442974b53935d1edc7fd64eb21e047a839171b600080a4005b346101b3576101003660031901126101b3576001600160401b036004356024358281116101b3576102e6903690600401614dec565b906064358381116101b3576102ff903690600401614dec565b91610308615767565b6103156001548310615adb565b6040519261032284614d28565b60443584526020840191825260408401908152606084016084358152608085019160a435835260a086019360c435855261036460c088019660e4358852615160565b509651600a880155519687518181116104e35780610385600b8a015461519b565b99601f9a8b8111610571575b506020908b8311600114610504576000926104f9575b50508160011b916000199060031b1c191617600b8801555b600c870191519788519182116104e3576103d9835461519b565b81811161049e575b50602090821160011461043457819060109899600092610429575b50508160011b916000199060031b1c19161790555b51600d86015551600e85015551600f84015551910155005b0151905089806103fc565b601f198216988360005260206000209960005b8181106104865750916010999a9184600195941061046d575b505050811b019055610411565b015160001960f88460031b161c19169055898080610460565b838301518c556001909b019a60209384019301610447565b8360005260206000208280850160051c820192602086106104da575b0160051c01905b8181106104ce57506103e1565b600081556001016104c1565b925081926104ba565b634e487b7160e01b600052604160045260246000fd5b015190508a806103a7565b600b8b016000908152602081209350601f198516905b8181106105595750908460019594939210610540575b505050811b01600b8801556103bf565b015160001960f88460031b161c191690558a8080610530565b9293602060018192878601518155019501930161051a565b909150600b8a0160005260206000208b80850160051c820192602086106105bc575b9085949392910160051c01905b8181106105ad5750610391565b600081558493506001016105a0565b92508192610593565b346101b35760403660031901126101b3576106046004356105e4614e93565b908060005260006020526105ff600160406000200154615895565b615988565b005b346101b35760a03660031901126101b3576004356001600160401b036044358181116101b35761063a903690600401614dec565b906064358181116101b357610653903690600401614dec565b6084358281116101b35761066b903690600401614dec565b3360009081527fbce5fd3347e0dc338dcc0e895534dd4af2740eec95f56cd4ca4b4b2ada357ca0602090815260409091205491959091600080516020615c6b8339815191529060ff1615610a7b57506001946106c986548310615adb565b6106df60086106d784615160565b50015461519b565b610a3657610711604051926106f384614d5e565b60243584528484019283526040840195865260608401988952615160565b5091516006830155519283518581116104e357600783019080610734835461519b565b96601f978881116109e5575b50869088831160011461098257600092610977575b5050600019600383901b1c191690881b1790555b51805160088301918682116104e357610782835461519b565b868111610931575b5084908683116001146108c957600994939291600091836108be575b5050600019600383901b1c191690881b1790555b0194519081519384116104e3576107d1865461519b565b838111610878575b5080928411600114610815575092829391839260009461080a575b50501b916000199060031b1c1916179055600080f35b0151925085806107f4565b919083601f1981168760005284600020946000905b8883831061085e5750505010610845575b505050811b019055005b015160001960f88460031b161c1916905583808061083b565b85870151885590960195948501948793509081019061082a565b86600052816000208480870160051c8201928488106108b5575b0160051c019086905b8281106108a95750506107d9565b6000815501869061089b565b92508192610892565b015190508a806107a6565b9392918891601f1982169084600052876000209160005b8982821061091b575050968360099810610902575b505050811b0190556107ba565b015160001960f88460031b161c191690558a80806108f5565b838a015185558d969094019392830192016108e0565b83600052856000208780850160051c82019288861061096e575b0160051c019089905b82811061096257505061078a565b60008155018990610954565b9250819261094b565b015190508a80610755565b908a9350601f1983169185600052886000209260005b8a8282106109cf57505084116109b6575b505050811b019055610769565b015160001960f88460031b161c191690558a80806109a9565b8385015186558e97909501949384019301610998565b90915083600052866000208880850160051c820192898610610a2d575b918c91869594930160051c01915b828110610a1e575050610740565b600081558594508c9101610a10565b92508192610a02565b60405162461bcd60e51b815260048101849052601960248201527f426174636820616c7265616479207472616e73706f72746564000000000000006044820152606490fd5b82610a8533615a30565b91604051610a9281614d5e565b60428152828101916060368437815115610be957603083538151600190811015610be957607860218401536041905b808211610ba5575050610b6257610b2e93610b3d92604892604051968793600080516020615c8b83398151915288860152610b05815180928a603789019101614ea9565b8401917001034b99036b4b9b9b4b733903937b6329607d1b603784015251809386840190614ea9565b01036028810185520183614db0565b610b5e60405192839262461bcd60e51b845260048401526024830190614ecc565b0390fd5b6064836040519062461bcd60e51b825280600483015260248201527f537472696e67733a20686578206c656e67746820696e73756666696369656e746044820152fd5b9091600f8116906010821015610be957610be3916f181899199a1a9b1b9c1cb0b131b232b360811b901a610bd985876159fc565b5360041c92615a0d565b90610ac1565b634e487b7160e01b600052603260045260246000fd5b346101b35760203660031901126101b3576004356001548110156101b357610c2690615160565b5060e0610c328261526b565b91610ce4610c4260068301615300565b91610cd6610c52600a830161535c565b610cc8610c61601185016153ca565b610cba610c7060198701615476565b93610cac60ff6027610c8460208b016154f8565b9901541699610c9e6040519d8d8f9e8f9081520190614ef1565b8c810360208e015290614f67565b908a820360408c0152614fb0565b9088820360608a0152614ffb565b90868203608088015261508d565b9084820360a08601526150e5565b90151560c08301520390f35b346101b35760003660031901126101b3576020600154604051908152f35b346101b3576020806003193601126101b357610d28614e7d565b610d30615586565b600080516020615cab833981519152918260005260008152610d59600160406000200154615895565b600083815280825260408082206001600160a01b0390941680835293835290205460ff1615610d8457005b826000526000815260406000209082600052526040600020600160ff1982541617905533917f2f8788117e7eff1d82e926ec794901d17c78024a50270940304540a733656f0d600080a4005b346101b35760003660031901126101b357602060405160008152f35b346101b35760203660031901126101b357610e52610e21610e1b600435610e166001548210615adb565b615160565b5061526b565b610e7c815191610e6e602082015191610e606060604083015192015193604051978897608089526080890190614ecc565b908782036020890152614ecc565b908582036040870152614ecc565b908382036060850152614ecc565b0390f35b346101b3576101203660031901126101b3576004356024356001600160401b0381116101b357610eb4903690600401614dec565b6044356001600160401b0381116101b357610ed3903690600401614dec565b916064356001600160401b0381116101b357610ef3903690600401614dec565b916084356001600160401b0381116101b357610f13903690600401614dec565b60a4356001600160401b0381116101b357610f32903690600401614dec565b9061010435946001600160401b0386116101b357610f57610faa963690600401614dec565b93610f60615767565b610f6d6001548710615adb565b60405197610f7a89614d79565b8852602088015260408701526060860152608085015260c43560a085015260e43560c085015260e0840152615160565b5081519182516001600160401b0381116104e357610fcb601184015461519b565b601f811161160f575b506020601f82116001146115a15781929394600092611596575b50508160011b916000199060031b1c19161760118301555b60208101519182516001600160401b0381116104e357611029601283015461519b565b601f811161154f575b506020601f82116001146114e157819293946000926114d6575b50508160011b916000199060031b1c19161760128201555b60408201519182516001600160401b0381116104e357611087601384015461519b565b601f811161148f575b506020601f82116001146114215781929394600092611416575b50508160011b916000199060031b1c19161760138301555b60608101519182516001600160401b0381116104e3576110e5601483015461519b565b601f81116113cf575b506020601f82116001146113615781929394600092611356575b50508160011b916000199060031b1c19161760148201555b60808201518051906001600160401b0382116104e357611143601584015461519b565b601f811161130b575b50602090601f831160011461129857918060e0949260189460009261128d575b50508160011b916000199060031b1c19161760158201555b60a0840151601682015560c08401516017820155019101519081516001600160401b0381116104e3576111b7825461519b565b601f8111611245575b50602092601f82116001146111fe57928192936000926111f3575b5050600019600383901b1c191660019190911b179055005b0151905083806111db565b601f198216938360005260206000209160005b86811061122d575083600195961061084557505050811b019055005b91926020600181928685015181550194019201611211565b826000526020600020601f830160051c81019160208410611283575b601f0160051c01905b81811061127757506111c0565b6000815560010161126a565b9091508190611261565b01519050868061116c565b90601f198316916015850160005260206000209260005b8181106112f3575092600192859260189660e09896106112da575b505050811b016015820155611184565b015160001960f88460031b161c191690558680806112ca565b929360206001819287860151815501950193016112af565b601584016000526020600020601f840160051c8101916020851061134c575b601f0160051c01905b818110611340575061114c565b60008155600101611333565b909150819061132a565b015190508480611108565b6014830160005260206000209060005b601f19841681106113b75750600193949583601f1981161061139e575b505050811b016014820155611120565b015160001960f88460031b161c1916905584808061138e565b9091602060018192858a015181550193019101611371565b601483016000526020600020601f830160051c81016020841061140f575b601f830160051c820181106114035750506110ee565b600081556001016113ed565b50806113ed565b0151905084806110aa565b6013840160005260206000209060005b601f19841681106114775750600193949583601f1981161061145e575b505050811b0160138301556110c2565b015160001960f88460031b161c1916905584808061144e565b9091602060018192858a015181550193019101611431565b601384016000526020600020601f830160051c8101602084106114cf575b601f830160051c820181106114c3575050611090565b600081556001016114ad565b50806114ad565b01519050848061104c565b6012830160005260206000209060005b601f19841681106115375750600193949583601f1981161061151e575b505050811b016012820155611064565b015160001960f88460031b161c1916905584808061150e565b9091602060018192858a0151815501930191016114f1565b601283016000526020600020601f830160051c81016020841061158f575b601f830160051c82018110611583575050611032565b6000815560010161156d565b508061156d565b015190508480610fee565b6011840160005260206000209060005b601f19841681106115f75750600193949583601f198116106115de575b505050811b016011830155611006565b015160001960f88460031b161c191690558480806115ce565b9091602060018192858a0151815501930191016115b1565b601184016000526020600020601f830160051c81016020841061164f575b601f830160051c82018110611643575050610fd4565b6000815560010161162d565b508061162d565b346101b35760403660031901126101b35761166f614e93565b600435600052600060205260406000209060018060a01b0316600052602052602060ff604060002054166040519015158152f35b346101b3576020806003193601126101b35760256116c2600435615160565b5001549061172760216116e2600a6116db818704615b2d565b9506615b2d565b9360405194816116fb8793518092888087019101614ea9565b8201601760f91b8682015261171882518093888785019101614ea9565b01036001810185520183614db0565b610e7c604051928284938452830190614ecc565b346101b3576020806003193601126101b357602261175a600435615160565b5001549061172760216116e260646116db818704615b2d565b346101b35760c03660031901126101b3576004356001600160401b0381116101b3576117a3903690600401614dec565b6024356001600160401b0381116101b3576117c2903690600401614dec565b906044356001600160401b0381116101b3576117e2903690600401614dec565b6064356001600160401b0381116101b357611801903690600401614dec565b60a4356001600160401b0381116101b357611820903690600401614dec565b3360009081527fa51945ecba8f4c6b5cca29605887192f197979d006cd586a7af80838543824c86020526040902054909290600080516020615cab8339815191529060ff16156137265750600154946040519461187c86614d43565b8552602085015260408401526060830152608435608083015260a08201526040516118a681614d5e565b600081526040516118b681614d95565b6000815260208201526040516118cb81614d95565b6000815260408201526040516118e081614d95565b6000815260608201526040516118f581614d28565b6000815260405161190581614d95565b60008152602082015260405161191a81614d95565b6000815260408201526000606082015260006080820152600060a0820152600060c082015260405161194b81614d79565b60405161195781614d95565b60008152815260405161196981614d95565b60008152602082015260405161197e81614d95565b60008152604082015260405161199381614d95565b6000815260608201526040516119a881614d95565b600081526080820152600060a0820152600060c08201526040516119cb81614d95565b6000815260e0820152604051916119e183614d28565b6040516119ed81614d95565b6000815283526040516119ff81614d95565b60008152602084015260006040840152604051611a1b81614d95565b60008152606084015260006080840152600060a0840152600060c084015260405193611a4685614d28565b604051611a5281614d95565b600081528552604051611a6481614d95565b60008152602086015260006040860152604051611a8081614d95565b600081526060860152604051611a9581614d95565b600081526080860152600060a0860152600060c086015260405195611ab987614d28565b8652602086015260408501526060840152608083015260a0820152600060c0820152600160401b8210156104e35760018201600155611af782615160565b91909161371057805180518051906001600160401b0382116104e3578190611b1f865461519b565b601f81116136c0575b50602090601f831160011461365457600092613649575b50508160011b916000199060031b1c19161783555b60208101518051906001600160401b0382116104e3578190611b79600187015461519b565b601f81116135f6575b50602090601f831160011461358457600092613579575b50508160011b916000199060031b1c19161760018401555b60408101518051906001600160401b0382116104e3578190611bd6600287015461519b565b601f8111613526575b50602090601f83116001146134b4576000926134a9575b50508160011b916000199060031b1c19161760028401555b60608101518051906001600160401b0382116104e357611c31600386015461519b565b601f8111613462575b50602090601f83116001146133ef5760a0939291600091836133e4575b50508160011b916000199060031b1c19161760038501555b6080810151600485015501519283516001600160401b0381116104e357611c99600585015461519b565b601f811161339d575b506020601f821160011461332e578192939495600092613323575b50508160011b916000199060031b1c19161760058401555b60208201518051600685015560208101518051906001600160401b0382116104e3578190611d06600788015461519b565b601f81116132d0575b50602090601f831160011461325e57600092613253575b50508160011b916000199060031b1c19161760078501555b60408101518051906001600160401b0382116104e357611d61600887015461519b565b601f811161320c575b50602090601f83116001146131995760609392916000918361318e575b50508160011b916000199060031b1c19161760088601555b01519283516001600160401b0381116104e357611dbf600983015461519b565b601f8111613147575b506020601f82116001146130d85781929394956000926130cd575b50508160011b916000199060031b1c19161760098201555b60408301518051600a83015560208101518051906001600160401b0382116104e3578190611e2c600b86015461519b565b601f811161307a575b50602090601f831160011461300857600092612ffd575b50508160011b916000199060031b1c191617600b8301555b60408101518051906001600160401b0382116104e357611e87600c85015461519b565b601f8111612fb6575b50602090601f8311600114612f435760c093929160009183612f38575b50508160011b916000199060031b1c191617600c8401555b6060810151600d8401556080810151600e84015560a0810151600f84015501516010820155606083015180518051906001600160401b0382116104e3578190611f11601186015461519b565b601f8111612ee5575b50602090601f8311600114612e7357600092612e68575b50508160011b916000199060031b1c19161760118301555b60208101518051906001600160401b0382116104e3578190611f6e601286015461519b565b601f8111612e15575b50602090601f8311600114612da357600092612d98575b50508160011b916000199060031b1c19161760128301555b60408101518051906001600160401b0382116104e3578190611fcb601386015461519b565b601f8111612d45575b50602090601f8311600114612cd357600092612cc8575b50508160011b916000199060031b1c19161760138301555b60608101518051906001600160401b0382116104e3578190612028601486015461519b565b601f8111612c75575b50602090601f8311600114612c0357600092612bf8575b50508160011b916000199060031b1c19161760148301555b60808101518051906001600160401b0382116104e357612083601585015461519b565b601f8111612bb1575b50602090601f8311600114612b3e5760e093929160009183612b33575b50508160011b916000199060031b1c19161760158401555b60a0810151601684015560c0810151601784015501519283516001600160401b0381116104e3576120f5601884015461519b565b601f8111612aec575b506020601f8211600114612a7d578192939495600092612a72575b50508160011b916000199060031b1c19161760188301555b608081015180518051906001600160401b0382116104e3578190612158601987015461519b565b601f8111612a1f575b50602090601f83116001146129ad576000926129a2575b50508160011b916000199060031b1c19161760198401555b60208101518051906001600160401b0382116104e35781906121b5601a87015461519b565b601f811161294f575b50602090601f83116001146128dd576000926128d2575b50508160011b916000199060031b1c191617601a8401555b6040810151601b84015560608101518051906001600160401b0382116104e35761221a601c86015461519b565b601f811161288b575b50602090601f8311600114612815579180612289949260c09460009261280a575b50508160011b916000199060031b1c191617601c8601555b6080810151601d86015560a0810151601e86015501511515601f84019060ff801983541691151516179055565b60a081015180518051906001600160401b0382116104e35781906122b0602087015461519b565b601f81116127b7575b50602090601f83116001146127455760009261273a575b50508160011b916000199060031b1c19161760208401555b60208101518051906001600160401b0382116104e357819061230d602187015461519b565b601f81116126e7575b50602090601f83116001146126755760009261266a575b50508160011b916000199060031b1c19161760218401555b6040810151602284015560608101518051906001600160401b0382116104e3578190612374602387015461519b565b601f8111612617575b50602090601f83116001146125a55760009261259a575b50508160011b916000199060031b1c19161760238401555b60808101518051906001600160401b0382116104e3576123cf602486015461519b565b601f8111612553575b50602090601f83116001146124d45760c060279484829561245399989561243c956000926124c9575b50508160011b916000199060031b1c19161760248801555b60a0810151602588015501511515602686019060ff801983541691151516179055565b0151151591019060ff801983541691151516179055565b336000526002602052604060002090815491600160401b8310156104e35782612483916001602095018155615148565b81549060031b9083821b91600019901b19161790557f999f33d8277b5c68b479fda62fa5ee13eecf7d181a12666721ba4de1fcbfc14c82604051838152a1604051908152f35b015190508b80612401565b906024860160005260206000209160005b601f198516811061253b575060279460018561245399989561243c9560c098958996601f19811610612522575b505050811b016024880155612419565b015160001960f88460031b161c191690558b8080612512565b919260206001819286850151815501940192016124e5565b602486016000526020600020601f840160051c810160208510612593575b601f830160051c820181106125875750506123d8565b60008155600101612571565b5080612571565b015190508680612394565b9250602386016000526020600020906000935b601f19841685106125fc576001945083601f198116106125e3575b505050811b0160238401556123ac565b015160001960f88460031b161c191690558680806125d3565b818101518355602094850194600190930192909101906125b8565b909150602386016000526020600020601f840160051c810160208510612663575b90849392915b601f830160051c8201811061265457505061237d565b6000815585945060010161263e565b5080612638565b01519050868061232d565b9250602186016000526020600020906000935b601f19841685106126cc576001945083601f198116106126b3575b505050811b016021840155612345565b015160001960f88460031b161c191690558680806126a3565b81810151835560209485019460019093019290910190612688565b909150602186016000526020600020601f840160051c810160208510612733575b90849392915b601f830160051c82018110612724575050612316565b6000815585945060010161270e565b5080612708565b0151905086806122d0565b9250602086016000526020600020906000935b601f198416851061279c576001945083601f19811610612783575b505050811b0160208401556122e8565b015160001960f88460031b161c19169055868080612773565b81810151835560209485019460019093019290910190612758565b909150602086016000526020600020601f840160051c810160208510612803575b90849392915b601f830160051c820181106127f45750506122b9565b600081558594506001016127de565b50806127d8565b015190508880612244565b90601c860160005260206000209160005b601f1985168110612873575092612289949260019260c09583601f1981161061285a575b505050811b01601c86015561225c565b015160001960f88460031b161c1916905588808061284a565b91926020600181928685015181550194019201612826565b601c86016000526020600020601f840160051c8101602085106128cb575b601f830160051c820181106128bf575050612223565b600081556001016128a9565b50806128a9565b0151905086806121d5565b9250601a86016000526020600020906000935b601f1984168510612934576001945083601f1981161061291b575b505050811b01601a8401556121ed565b015160001960f88460031b161c1916905586808061290b565b818101518355602094850194600190930192909101906128f0565b909150601a86016000526020600020601f840160051c81016020851061299b575b90849392915b601f830160051c8201811061298c5750506121be565b60008155859450600101612976565b5080612970565b015190508680612178565b9250601986016000526020600020906000935b601f1984168510612a04576001945083601f198116106129eb575b505050811b016019840155612190565b015160001960f88460031b161c191690558680806129db565b818101518355602094850194600190930192909101906129c0565b909150601986016000526020600020601f840160051c810160208510612a6b575b90849392915b601f830160051c82018110612a5c575050612161565b60008155859450600101612a46565b5080612a40565b015190508580612119565b6018840160005260206000209060005b601f1984168110612ad4575060019394959683601f19811610612abb575b505050811b016018830155612131565b015160001960f88460031b161c19169055858080612aab565b9091602060018192858b015181550193019101612a8d565b601884016000526020600020601f830160051c810160208410612b2c575b601f830160051c82018110612b205750506120fe565b60008155600101612b0a565b5080612b0a565b0151905087806120a9565b906015850160005260206000209160005b601f1985168110612b99575091839160019360e09695601f19811610612b80575b505050811b0160158401556120c1565b015160001960f88460031b161c19169055878080612b70565b91926020600181928685015181550194019201612b4f565b601585016000526020600020601f840160051c810160208510612bf1575b601f830160051c82018110612be557505061208c565b60008155600101612bcf565b5080612bcf565b015190508680612048565b9250601485016000526020600020906000935b601f1984168510612c5a576001945083601f19811610612c41575b505050811b016014830155612060565b015160001960f88460031b161c19169055868080612c31565b81810151835560209485019460019093019290910190612c16565b909150601485016000526020600020601f840160051c810160208510612cc1575b90849392915b601f830160051c82018110612cb2575050612031565b60008155859450600101612c9c565b5080612c96565b015190508680611feb565b9250601385016000526020600020906000935b601f1984168510612d2a576001945083601f19811610612d11575b505050811b016013830155612003565b015160001960f88460031b161c19169055868080612d01565b81810151835560209485019460019093019290910190612ce6565b909150601385016000526020600020601f840160051c810160208510612d91575b90849392915b601f830160051c82018110612d82575050611fd4565b60008155859450600101612d6c565b5080612d66565b015190508680611f8e565b9250601285016000526020600020906000935b601f1984168510612dfa576001945083601f19811610612de1575b505050811b016012830155611fa6565b015160001960f88460031b161c19169055868080612dd1565b81810151835560209485019460019093019290910190612db6565b909150601285016000526020600020601f840160051c810160208510612e61575b90849392915b601f830160051c82018110612e52575050611f77565b60008155859450600101612e3c565b5080612e36565b015190508680611f31565b9250601185016000526020600020906000935b601f1984168510612eca576001945083601f19811610612eb1575b505050811b016011830155611f49565b015160001960f88460031b161c19169055868080612ea1565b81810151835560209485019460019093019290910190612e86565b909150601185016000526020600020601f840160051c810160208510612f31575b90849392915b601f830160051c82018110612f22575050611f1a565b60008155859450600101612f0c565b5080612f06565b015190508780611ead565b90600c850160005260206000209160005b601f1985168110612f9e575091839160019360c09695601f19811610612f85575b505050811b01600c840155611ec5565b015160001960f88460031b161c19169055878080612f75565b91926020600181928685015181550194019201612f54565b600c85016000526020600020601f840160051c810160208510612ff6575b601f830160051c82018110612fea575050611e90565b60008155600101612fd4565b5080612fd4565b015190508680611e4c565b9250600b85016000526020600020906000935b601f198416851061305f576001945083601f19811610613046575b505050811b01600b830155611e64565b015160001960f88460031b161c19169055868080613036565b8181015183556020948501946001909301929091019061301b565b909150600b85016000526020600020601f840160051c8101602085106130c6575b90849392915b601f830160051c820181106130b7575050611e35565b600081558594506001016130a1565b508061309b565b015190508580611de3565b6009830160005260206000209060005b601f198416811061312f575060019394959683601f19811610613116575b505050811b016009820155611dfb565b015160001960f88460031b161c19169055858080613106565b9091602060018192858b0151815501930191016130e8565b600983016000526020600020601f830160051c810160208410613187575b601f830160051c8201811061317b575050611dc8565b60008155600101613165565b5080613165565b015190508780611d87565b906008870160005260206000209160005b601f19851681106131f4575091839160019360609695601f198116106131db575b505050811b016008860155611d9f565b015160001960f88460031b161c191690558780806131cb565b919260206001819286850151815501940192016131aa565b600887016000526020600020601f840160051c81016020851061324c575b601f830160051c82018110613240575050611d6a565b6000815560010161322a565b508061322a565b015190508680611d26565b9250600787016000526020600020906000935b601f19841685106132b5576001945083601f1981161061329c575b505050811b016007850155611d3e565b015160001960f88460031b161c1916905586808061328c565b81810151835560209485019460019093019290910190613271565b909150600787016000526020600020601f840160051c81016020851061331c575b90849392915b601f830160051c8201811061330d575050611d0f565b600081558594506001016132f7565b50806132f1565b015190508580611cbd565b6005850160005260206000209060005b601f1984168110613385575060019394959683601f1981161061336c575b505050811b016005840155611cd5565b015160001960f88460031b161c1916905585808061335c565b9091602060018192858b01518155019301910161333e565b600585016000526020600020601f830160051c8101602084106133dd575b601f830160051c820181106133d1575050611ca2565b600081556001016133bb565b50806133bb565b015190508780611c57565b906003860160005260206000209160005b601f198516811061344a575091839160019360a09695601f19811610613431575b505050811b016003850155611c6f565b015160001960f88460031b161c19169055878080613421565b91926020600181928685015181550194019201613400565b600386016000526020600020601f840160051c8101602085106134a2575b601f830160051c82018110613496575050611c3a565b60008155600101613480565b5080613480565b015190508680611bf6565b9250600286016000526020600020906000935b601f198416851061350b576001945083601f198116106134f2575b505050811b016002840155611c0e565b015160001960f88460031b161c191690558680806134e2565b818101518355602094850194600190930192909101906134c7565b909150600286016000526020600020601f840160051c810160208510613572575b90849392915b601f830160051c82018110613563575050611bdf565b6000815585945060010161354d565b5080613547565b015190508680611b99565b9250600186016000526020600020906000935b601f19841685106135db576001945083601f198116106135c2575b505050811b016001840155611bb1565b015160001960f88460031b161c191690558680806135b2565b81810151835560209485019460019093019290910190613597565b909150600186016000526020600020601f840160051c810160208510613642575b90849392915b601f830160051c82018110613633575050611b82565b6000815585945060010161361d565b5080613617565b015190508680611b3f565b9250856000526020600020906000935b601f19841685106136a5576001945083601f1981161061368c575b505050811b018355611b54565b015160001960f88460031b161c1916905586808061367f565b81810151835560209485019460019093019290910190613664565b909150856000526020600020601f840160051c810160208510613709575b90849392915b601f830160051c820181106136fa575050611b28565b600081558594506001016136e4565b50806136de565b634e487b7160e01b600052600060045260246000fd5b61372f33615a30565b6040519161373c83614d5e565b6042835260208301906060368337835115610be957603082538351600190811015610be957607860218601536041905b8082116138285750506137e45760486137b5926137c492610b5e95604051958693600080516020615c8b8339815191526020860152610b05815180926020603789019101614ea9565b01036028810184520182614db0565b60405162461bcd60e51b8152602060048201529182916024830190614ecc565b606460405162461bcd60e51b815260206004820152602060248201527f537472696e67733a20686578206c656e67746820696e73756666696369656e746044820152fd5b9091600f8116906010821015610be95761385c916f181899199a1a9b1b9c1cb0b131b232b360811b901a610bd985896159fc565b9061376c565b346101b35760003660031901126101b35760206040517fa49807205ce4d355092ef5a8a18f56e8913cf4a201fbe287825b095693c217758152f35b346101b35760003660031901126101b35760206040517f64400d3a08c4daec65d903c105722c54dce87fceeab435cccc2cdf93dda1d95e8152f35b346101b3576020806003193601126101b3576001600160a01b036138fa614e7d565b1660005260028152604060002090604051908181845491828152019360005281600020916000905b82821061394557610e7c8561393981890382614db0565b60405191829182614e42565b835486529485019460019384019390910190613922565b346101b35760403660031901126101b357613975614e7d565b6001600160a01b03166000908152600260205260409020805460243591908210156101b3576020916139a691615148565b90546040519160031b1c8152f35b346101b3576020806003193601126101b3576040516004356139d582614d28565b604051916139e283614d43565b606090818452818585015281604085015281808501526080928385016000905260a09483868201528252604051613a1881614d5e565b600081528387820152836040820152838082015286830152604051613a3c81614d28565b60008152838782015283604082015283810160009052848101600090528581016000905260c0928184809301600090526040820152604051613a7d81614d79565b85815285898201528560408201528580820152858782015287810160009052828101600090528560e082015285820152604051613ab981614d28565b85815285898201526040810160009052858082015286810160009052878101600090528281016000905286820152604051613af381614d28565b858152858982015260408101600090528580820152858782015287810160009052828101600090528782015201600090526001548110613b3290615adb565b613b3b90615160565b509060405194613b4a86614d28565b613b538361526b565b8652613b6160068401615300565b86880190815293613b74600a850161535c565b6040880190815295613b88601186016153ca565b888301908152613b9a60198701615476565b89830190815292613bac878c016154f8565b96858b019788526027015460ff1698868b019915158a526040519b8c9b818d5251908c0160e090526101008c01613be291614ef1565b9851601f198c8b03810160408e015299613bfb91614f67565b905191898c830301908c0152613c1091614fb0565b905191878a830301908a0152613c2591614ffb565b905191858883030190880152613c3a9161508d565b9151928583030190850152613c4e916150e5565b9051151560e08301520390f35b346101b3576020806003193601126101b3576004356001600160401b0381116101b357613c8c903690600401614dec565b6001548282019290916000805b848110613d2b5750613caa90615c24565b9360009260005b858110613cc65760405180610e7c8982614e42565b6021613cec613cd483615160565b50613ce560405180948193016151d5565b0382614db0565b8281519101208451842014613d0a575b613d0590615b1e565b613cb1565b93613d238186613d1d613d05948b615c56565b52615b1e565b949050613cfc565b6021613d39613cd483615160565b8481519101208351872014613d57575b613d5290615b1e565b613c99565b90613d64613d5291615b1e565b919050613d49565b346101b3576020806003193601126101b357613d86614e7d565b613d8e615586565b600080516020615c6b833981519152918260005260008152610d59600160406000200154615895565b346101b35760003660031901126101b3576020604051600080516020615c6b8339815191528152f35b346101b3576101003660031901126101b3576001600160401b036004356024358281116101b357613e15903690600401614dec565b6044358381116101b357613e2d903690600401614dec565b91608435918483116101b357613e4a613ea5933690600401614dec565b613e52614e33565b91613e5b615767565b613e686001548510615adb565b60405195613e7587614d28565b865260208601526064356040860152606085015260a435608085015260c43560a0850152151560c0840152615160565b509181519283518281116104e357613ec0601983015461519b565b601f81116141e7575b50602094601f821160011461417b57948192939495600092614170575b50508160011b916000199060031b1c19161760198201555b60208301519283518381116104e357613f1a601a84015461519b565b601f8111614125575b50602094601f82116001146140b9579481929394956000926140ae575b50508160011b916000199060031b1c191617601a8301555b6040810151601b830155601c820160608201519384519081116104e357613f7f825461519b565b601f8111614066575b506020601f8211600114613ff6579181601f949260c09461060498600092613feb575b50508160011b916000199060031b1c19161790555b6080810151601d85015560a0810151601e8501550151151591019060ff801983541691151516179055565b015190508880613fab565b601f198216958360005260206000209660005b81811061404e5750926106049760c0959360019383601f999710614035575b505050811b019055613fc0565b015160001960f88460031b161c19169055888080614028565b83830151895560019098019760209384019301614009565b826000526020600020601f830160051c810191602084106140a4575b601f0160051c01905b8181106140985750613f88565b6000815560010161408b565b9091508190614082565b015190508580613f40565b601f19821695601a850160005260206000209160005b88811061410d575083600195969798106140f4575b505050811b01601a830155613f58565b015160001960f88460031b161c191690558580806140e4565b919260206001819286850151815501940192016140cf565b601a84016000526020600020601f830160051c81019160208410614166575b601f0160051c01905b81811061415a5750613f23565b6000815560010161414d565b9091508190614144565b015190508580613ee6565b601f198216956019840160005260206000209160005b8881106141cf575083600195969798106141b6575b505050811b016019820155613efe565b015160001960f88460031b161c191690558580806141a6565b91926020600181928685015181550194019201614191565b601983016000526020600020601f830160051c810160208410614227575b601f830160051c8201811061421b575050613ec9565b60008155600101614205565b5080614205565b346101b35760403660031901126101b357614247614e93565b336001600160a01b038216036142635761060490600435615988565b60405162461bcd60e51b815260206004820152602f60248201527f416363657373436f6e74726f6c3a2063616e206f6e6c792072656e6f756e636560448201526e103937b632b9903337b91039b2b63360891b6064820152608490fd5b346101b3576020806003193601126101b3576004356001600160401b0381116101b3576142f1903690600401614dec565b6001548282019290916000805b848110614372575061430f90615c24565b9360009260005b85811061432b5760405180610e7c8982614e42565b6008614339613cd483615160565b8281519101208451842014614357575b61435290615b1e565b614316565b9361436a8186613d1d614352948b615c56565b949050614349565b6008614380613cd483615160565b848151910120835187201461439e575b61439990615b1e565b6142fe565b906143ab61439991615b1e565b919050614390565b346101b35760403660031901126101b3576004356143cf614e93565b8160005260006020526143e9600160406000200154615895565b81600052600060205260406000209060018060a01b0316908160005260205260ff604060002054161561441857005b8160005260006020526040600020816000526020526040600020600160ff1982541617905533917f2f8788117e7eff1d82e926ec794901d17c78024a50270940304540a733656f0d600080a4005b346101b35760203660031901126101b35760043560005260006020526020600160406000200154604051908152f35b346101b3576020806003193601126101b3576144af614e7d565b6144b7615586565b600080516020615cab83398151915291826000526000815261023e600160406000200154615895565b346101b3576020806003193601126101b3576004356001600160401b0381116101b357614511903690600401614dec565b6001548282019290916000805b848110614592575061452f90615c24565b9360009260005b85811061454b5760405180610e7c8982614e42565b600b614559613cd483615160565b8281519101208451842014614577575b61457290615b1e565b614536565b9361458a8186613d1d614572948b615c56565b949050614569565b600b6145a0613cd483615160565b84815191012083518720146145be575b6145b990615b1e565b61451e565b906145cb6145b991615b1e565b9190506145b0565b346101b3576101003660031901126101b3576024356001600160401b0381116101b357614604903690600401614dec565b6044356001600160401b0381116101b357614623903690600401614dec565b906084356001600160401b0381116101b357614643903690600401614dec565b60a4356001600160401b0381116101b357614662903690600401614dec565b9061466b614e33565b3360009081527f7c9cfd5c9c9d62e51fbe6b368de05771fae32fd3e53f7d6a93d114e5cd4134f060205260409020549093907f64400d3a08c4daec65d903c105722c54dce87fceeab435cccc2cdf93dda1d95e9060ff1615614c0c57506146d760015460043510615adb565b60276146e4600435615160565b5001805460ff19166001179055604051946146fe86614d28565b8552602085015260643560408501526060840152608083015260c43560a0830152151560c0820152614731600435615160565b509080519182516001600160401b0381116104e357614753602083015461519b565b601f8111614bc5575b506020601f8211600114614b575781929394600092614b4c575b50508160011b916000199060031b1c19161760208201555b60208201519182516001600160401b0381116104e3576147b1602184015461519b565b601f8111614b05575b506020601f8211600114614a975781929394600092614a8c575b50508160011b916000199060031b1c19161760218301555b6040810151602283015560608101519182516001600160401b0381116104e357614819602383015461519b565b601f8111614a45575b506020601f82116001146149d757819293946000926149cc575b50508160011b916000199060031b1c19161760238201555b602481019160808101519283516001600160401b0381116104e357614879825461519b565b601f8111614984575b506020601f82116001146149145791816026949260c0946148db98600092614909575b50508160011b916000199060031b1c19161790555b60a081015160258501550151151591019060ff801983541691151516179055565b7f9dbfd6d9f9da12db4beee656a713e0a12ad22682034b15a1aba4e2305738855b60206040516004358152a1005b0151905088806148a5565b601f198216958360005260206000209660005b81811061496c5750926148db9760c09593600193836026999710614953575b505050811b0190556148ba565b015160001960f88460031b161c19169055888080614946565b83830151895560019098019760209384019301614927565b826000526020600020601f830160051c810191602084106149c2575b601f0160051c01905b8181106149b65750614882565b600081556001016149a9565b90915081906149a0565b01519050848061483c565b6023830160005260206000209060005b601f1984168110614a2d5750600193949583601f19811610614a14575b505050811b016023820155614854565b015160001960f88460031b161c19169055848080614a04565b9091602060018192858a0151815501930191016149e7565b602383016000526020600020601f830160051c810160208410614a85575b601f830160051c82018110614a79575050614822565b60008155600101614a63565b5080614a63565b0151905084806147d4565b6021840160005260206000209060005b601f1984168110614aed5750600193949583601f19811610614ad4575b505050811b0160218301556147ec565b015160001960f88460031b161c19169055848080614ac4565b9091602060018192858a015181550193019101614aa7565b602184016000526020600020601f830160051c810160208410614b45575b601f830160051c82018110614b395750506147ba565b60008155600101614b23565b5080614b23565b015190508480614776565b6020830160005260206000209060005b601f1984168110614bad5750600193949583601f19811610614b94575b505050811b01602082015561478e565b015160001960f88460031b161c19169055848080614b84565b9091602060018192858a015181550193019101614b67565b602083016000526020600020601f830160051c810160208410614c05575b601f830160051c82018110614bf957505061475c565b60008155600101614be3565b5080614be3565b614c1533615a30565b60405191614c2283614d5e565b6042835260208301906060368337835115610be957603082538351600190811015610be957607860218601536041905b808211614c9b5750506137e45760486137b5926137c492610b5e95604051958693600080516020615c8b8339815191526020860152610b05815180926020603789019101614ea9565b9091600f8116906010821015610be957614ccf916f181899199a1a9b1b9c1cb0b131b232b360811b901a610bd985896159fc565b90614c52565b346101b35760203660031901126101b3576004359063ffffffff60e01b82168092036101b357602091637965db0b60e01b8114908115614d17575b5015158152f35b6301ffc9a760e01b14905083614d10565b60e081019081106001600160401b038211176104e357604052565b60c081019081106001600160401b038211176104e357604052565b608081019081106001600160401b038211176104e357604052565b61010081019081106001600160401b038211176104e357604052565b602081019081106001600160401b038211176104e357604052565b90601f801991011681019081106001600160401b038211176104e357604052565b6001600160401b0381116104e357601f01601f191660200190565b81601f820112156101b357803590614e0382614dd1565b92614e116040519485614db0565b828452602083830101116101b357816000926020809301838601378301015290565b60e4359081151582036101b357565b6020908160408183019282815285518094520193019160005b828110614e69575050505090565b835185529381019392810192600101614e5b565b600435906001600160a01b03821682036101b357565b602435906001600160a01b03821682036101b357565b60005b838110614ebc5750506000910152565b8181015183820152602001614eac565b90602091614ee581518092818552858086019101614ea9565b601f01601f1916010190565b614f649160a0614f49614f37614f25614f13865160c0875260c0870190614ecc565b60208701518682036020880152614ecc565b60408601518582036040870152614ecc565b60608501518482036060860152614ecc565b926080810151608084015201519060a0818403910152614ecc565b90565b614f6491815181526060614f9f614f8d6020850151608060208601526080850190614ecc565b60408501518482036040860152614ecc565b920151906060818403910152614ecc565b908151815260c080614fd4614f25602086015160e0602087015260e0860190614ecc565b93606081015160608501526080810151608085015260a081015160a0850152015191015290565b614f649160e06150686150566150446150326150208751610100808952880190614ecc565b60208801518782036020890152614ecc565b60408701518682036040880152614ecc565b60608601518582036060870152614ecc565b60808501518482036080860152614ecc565b9260a081015160a084015260c081015160c084015201519060e0818403910152614ecc565b9060c0806150c66150aa614f13865160e0875260e0870190614ecc565b6040860151604086015260608601518582036060870152614ecc565b936080810151608085015260a081015160a08501520151151591015290565b9060c080615133615121615105615020875160e0885260e0880190614ecc565b6040870151604087015260608701518682036060880152614ecc565b60808601518582036080870152614ecc565b9360a081015160a08501520151151591015290565b8054821015610be95760005260206000200190600090565b600154811015610be9576028906001600052027fb10e2d527612073b26eecdfd717e6a320cf44b4afac2b0732d9fcbe2b7fa0cf60190600090565b90600182811c921680156151cb575b60208310146151b557565b634e487b7160e01b600052602260045260246000fd5b91607f16916151aa565b90600092918054916151e68361519b565b9182825260019384811690816000146152485750600114615208575b50505050565b90919394506000526020928360002092846000945b838610615234575050505001019038808080615202565b80548587018301529401938590820161521d565b9294505050602093945060ff191683830152151560051b01019038808080615202565b90600560a06040936152fc85519161528283614d43565b6152f58397805161529781613ce581876151d5565b855280516152ac81613ce581600188016151d5565b602086015280516152c481613ce581600288016151d5565b8186015280516152db81613ce581600388016151d5565b6060860152600483015460808601525180968193016151d5565b0384614db0565b0152565b906003606060405161531181614d5e565b6152fc81958054835260405161532e81613ce581600186016151d5565b602084015260405161534781613ce581600286016151d5565b60408401526152f560405180968193016151d5565b9060405161536981614d28565b60c0600682948054845260405161538781613ce581600186016151d5565b60208501526040516153a081613ce581600286016151d5565b60408501526003810154606085015260048101546080850152600581015460a08501520154910152565b90600760e06040936152fc8551916153e183614d79565b6152f5839780516153f681613ce581876151d5565b8552805161540b81613ce581600188016151d5565b6020860152805161542381613ce581600288016151d5565b81860152805161543a81613ce581600388016151d5565b6060860152805161545281613ce581600488016151d5565b6080860152600583015460a0860152600683015460c08601525180968193016151d5565b9060405161548381614d28565b60c060ff6006839560405161549c81613ce581856151d5565b85526040516154b281613ce581600186016151d5565b6020860152600281015460408601526040516154d581613ce581600386016151d5565b606086015260048101546080860152600581015460a08601520154161515910152565b9060409160c060ff600685519361550e85614d28565b8496805161552081613ce581866151d5565b8652805161553581613ce581600187016151d5565b6020870152600282015481870152805161555681613ce581600387016151d5565b60608701525161556d81613ce581600486016151d5565b6080860152600581015460a08601520154161515910152565b3360009081527f7d7ffb7a348e1c6a02869081a26547b49160dd3df72d1d75a570eb9b698292ec602090815260408083205490927fa49807205ce4d355092ef5a8a18f56e8913cf4a201fbe287825b095693c217759160ff16156155ea5750505050565b6155f333615a30565b9184519061560082614d5e565b604282528482019260603685378251156157535760308453825160019081101561573f5790607860218501536041915b8083116156e5575050506156a3576048610b5e938693615687936156789851988993600080516020615c8b8339815191528a860152610b05815180928c603789019101614ea9565b01036028810187520185614db0565b5192839262461bcd60e51b845260048401526024830190614ecc565b60648486519062461bcd60e51b825280600483015260248201527f537472696e67733a20686578206c656e67746820696e73756666696369656e746044820152fd5b909192600f8116601081101561572b5761572491906f181899199a1a9b1b9c1cb0b131b232b360811b901a61571a86886159fc565b5360041c93615a0d565b9190615630565b634e487b7160e01b84526032600452602484fd5b634e487b7160e01b82526032600452602482fd5b634e487b7160e01b81526032600452602490fd5b3360009081527fd9ea67e2352cdb1ad304b09ae0bcc7c65e3e602b6a096510faec67fadd39a8a0602090815260408083205490927f7bc22597b932d7034dd2d258199090b37f9a59226c150db7fa910207f1c0ff9a9160ff16156157cb5750505050565b6157d433615a30565b918451906157e182614d5e565b604282528482019260603685378251156157535760308453825160019081101561573f5790607860218501536041915b808311615859575050506156a3576048610b5e938693615687936156789851988993600080516020615c8b8339815191528a860152610b05815180928c603789019101614ea9565b909192600f8116601081101561572b5761588e91906f181899199a1a9b1b9c1cb0b131b232b360811b901a61571a86886159fc565b9190615811565b600090808252602090828252604092838120338252835260ff8482205416156158be5750505050565b6158c733615a30565b918451906158d482614d5e565b604282528482019260603685378251156157535760308453825160019081101561573f5790607860218501536041915b80831161594c575050506156a3576048610b5e938693615687936156789851988993600080516020615c8b8339815191528a860152610b05815180928c603789019101614ea9565b909192600f8116601081101561572b5761598191906f181899199a1a9b1b9c1cb0b131b232b360811b901a61571a86886159fc565b9190615904565b9060009180835282602052604083209160018060a01b03169182845260205260ff6040842054166159b857505050565b80835282602052604083208284526020526040832060ff1981541690557ff6391f5c32d9c69d2a47ea670b442974b53935d1edc7fd64eb21e047a839171b339380a4565b908151811015610be9570160200190565b8015615a1a576000190190565b634e487b7160e01b600052601160045260246000fd5b60405190606082018281106001600160401b038211176104e357604052602a8252602082016040368237825115610be957603090538151600190811015610be957607860218401536029905b808211615a8c5750506137e45790565b9091600f8116906010821015615ac657615ac0916f181899199a1a9b1b9c1cb0b131b232b360811b901a610bd985876159fc565b90615a7c565b60246000634e487b7160e01b81526032600452fd5b15615ae257565b60405162461bcd60e51b815260206004820152601460248201527310985d18da08191bd95cc81b9bdd08195e1a5cdd60621b6044820152606490fd5b6000198114615a1a5760010190565b8015615bdf57806000908282935b615bcb575080615b4a84614dd1565b93615b586040519586614db0565b808552601f19615b6782614dd1565b01366020870137915b615b7a5750505090565b600a906030928282068401809411615bb757615b9590615a0d565b9260f81b6001600160f81b031916841a615baf84876159fc565b530480615b70565b634e487b7160e01b85526011600452602485fd5b92615bd7600a91615b1e565b930480615b3b565b50604051604081018181106001600160401b038211176104e35760405260018152600360fc1b602082015290565b6001600160401b0381116104e35760051b60200190565b90615c2e82615c0d565b615c3b6040519182614db0565b8281528092615c4c601f1991615c0d565b0190602036910137565b8051821015610be95760209160051b01019056feddaa901e2fe3bda354fe0ede2785152d5c109282a613fe024a056a3e66c41bb3416363657373436f6e74726f6c3a206163636f756e74200000000000000000007c6181838a71a779e445600d4c6ecbe16bacf2b3c5bda69c29fada66d1b645d1a2646970667358221220dcf33db4a3cc8ce75af86d1185f1939614a5c35526dbce2b9cee1d318cce0c1a64736f6c634300081300332f8788117e7eff1d82e926ec794901d17c78024a50270940304540a733656f0d",
  "immutableReferences": {},
  "source": "// SPDX-License-Identifier: MIT\r\npragma solidity ^0.8.19;\r\n\r\nimport \"@openzeppelin/contracts/access/AccessControl.sol\";\r\n\r\ncontract OliveOilProductionChain is AccessControl {\r\n    bytes32 public constant ADMIN_ROLE = keccak256(\"ADMIN_ROLE\");\r\n    bytes32 public constant FARMER_ROLE = keccak256(\"FARMER_ROLE\");\r\n    bytes32 public constant TRANSPORTER_ROLE = keccak256(\"TRANSPORTER_ROLE\");\r\n    bytes32 public constant PRESSING_ROLE = keccak256(\"PRESSING_ROLE\");\r\n    bytes32 public constant ONH_ROLE = keccak256(\"ONH_ROLE\");\r\n\r\n    struct Harvesting {\r\n        string farmer;\r\n        string date;\r\n        string location;\r\n        string method;\r\n        uint256 quantity;\r\n        string variety;  \r\n    }\r\n\r\n    struct Transportation {\r\n        uint duration;\r\n        string conditions;\r\n        string transporterId;\r\n        string vehicleType;\r\n    }\r\n\r\n    struct StorageBeforePressing {\r\n        uint duration;\r\n        string pressingId;\r\n        string conditions;\r\n        uint temperature;\r\n        uint humidity;\r\n        uint goodOlives; \r\n        uint badOlives;  \r\n    }\r\n\r\n    struct PressingProcess {\r\n        string date;\r\n        string pressingId;\r\n        string facility;\r\n        string method;\r\n        string conditions;\r\n        uint256 temperature;\r\n        uint256 pressure;\r\n        string operatorName;\r\n    }\r\n\r\n    struct StorageAfterPressing {\r\n        string tankId;\r\n        string pressingId;\r\n        uint duration;\r\n        string conditions;\r\n        uint256 temperature;\r\n        uint256 humidity;\r\n        bool inertAtmosphere;\r\n    }\r\n\r\n    struct QualityCheck {\r\n        string lab;\r\n        string onhId;\r\n        uint256 acidity;\r\n        string quality;\r\n        string area;\r\n        uint256 peroxideValue;\r\n        bool certifiedOrganic;\r\n    }\r\n\r\n    struct Batch {\r\n        Harvesting harvesting;\r\n        Transportation transportation;\r\n        StorageBeforePressing storageBeforePressing;\r\n        PressingProcess pressingProcess;\r\n        StorageAfterPressing storageAfterPressing;\r\n        QualityCheck qualityCheck;\r\n        bool isFinalized;\r\n    }\r\n\r\n    Batch[] public batches;\r\n    mapping(address => uint[]) public farmerBatches;\r\n\r\n    event NewBatch(uint256 batchId);\r\n    event FinalizedBatch(uint256 batchId);\r\n\r\n    constructor() {\r\n        _setupRole(DEFAULT_ADMIN_ROLE, 0xb83AAbF4a4679A86f988837Ca87be8dd05390698);\r\n        _setupRole(ADMIN_ROLE, 0xb83AAbF4a4679A86f988837Ca87be8dd05390698);\r\n        _setupRole(FARMER_ROLE, 0x013e8AaE064294cf146d5743076e8f11CF4489F9);\r\n        _setupRole(TRANSPORTER_ROLE, 0x06Fdc58AF6750D6180F11EA31cD9eA077b19aCb7);\r\n        _setupRole(PRESSING_ROLE, 0xf91aCf0Fb5384945c2F82f404f7f5C1856f779cA);\r\n        _setupRole(ONH_ROLE, 0x25A1d99D5810568D9582dBF764200D499D65D5fd);\r\n    }\r\n\r\n    function createBatch(\r\n        string memory farmer,\r\n        string memory harvestDate,\r\n        string memory location,\r\n        string memory method,\r\n        uint256 quantity,\r\n        string memory variety\r\n    ) public onlyRole(FARMER_ROLE) returns (uint256 batchId) {\r\n        batchId = batches.length;\r\n        batches.push(\r\n            Batch({\r\n                harvesting: Harvesting(farmer, harvestDate, location, method, quantity, variety),\r\n                transportation: Transportation(0, \"\", \"\", \"\"),\r\n                storageBeforePressing: StorageBeforePressing(0, \"\", \"\", 0, 0, 0, 0), // Initialized with 0 for goodOlives and badOlives\r\n                pressingProcess: PressingProcess(\"\", \"\", \"\", \"\", \"\", 0, 0, \"\"),\r\n                storageAfterPressing: StorageAfterPressing(\"\", \"\", 0, \"\", 0, 0, false),\r\n                qualityCheck: QualityCheck(\"\", \"\", 0, \"\", \"\", 0, false),\r\n                isFinalized: false\r\n            })\r\n        );\r\n        farmerBatches[msg.sender].push(batchId);\r\n        emit NewBatch(batchId);\r\n    }\r\n\r\n    function logTransportation(\r\n        uint256 batchId,\r\n        uint duration,\r\n        string memory conditions,\r\n        string memory transporterId,\r\n        string memory vehicleType\r\n    ) public onlyRole(TRANSPORTER_ROLE) {\r\n        require(batchId < batches.length, \"Batch does not exist\");\r\n        require(bytes(batches[batchId].transportation.transporterId).length == 0, \"Batch already transported\");\r\n        batches[batchId].transportation = Transportation(duration, conditions, transporterId, vehicleType);\r\n    }\r\n\r\n    function logStorageBeforePressing(\r\n        uint256 batchId,\r\n        string memory pressingId,\r\n        uint duration,\r\n        string memory conditions,\r\n        uint temperature,\r\n        uint humidity,\r\n        uint goodOlives,  // Added parameter\r\n        uint badOlives    // Added parameter\r\n    ) public onlyRole(PRESSING_ROLE) {\r\n        require(batchId < batches.length, \"Batch does not exist\");\r\n        batches[batchId].storageBeforePressing = StorageBeforePressing(duration, pressingId, conditions, temperature, humidity, goodOlives, badOlives);\r\n    }\r\n\r\n    function logPressingProcess(\r\n        uint256 batchId,\r\n        string memory pressingId,\r\n        string memory date,\r\n        string memory facility,\r\n        string memory method,\r\n        string memory conditions,\r\n        uint temperature,\r\n        uint pressure,\r\n        string memory operatorName\r\n    ) public onlyRole(PRESSING_ROLE) {\r\n        require(batchId < batches.length, \"Batch does not exist\");\r\n        batches[batchId].pressingProcess = PressingProcess(date, pressingId, facility, method, conditions, temperature, pressure, operatorName);\r\n    }\r\n\r\n    function logStorageAfterPressing(\r\n        uint256 batchId,\r\n        string memory pressingId,\r\n        string memory tankId,\r\n        uint duration,\r\n        string memory conditions,\r\n        uint temperature,\r\n        uint humidity,\r\n        bool inertAtmosphere\r\n    ) public onlyRole(PRESSING_ROLE) {\r\n        require(batchId < batches.length, \"Batch does not exist\");\r\n        batches[batchId].storageAfterPressing = StorageAfterPressing(tankId, pressingId, duration, conditions, temperature, humidity, inertAtmosphere);\r\n    }\r\n\r\n    function logQualityCheck(\r\n        uint256 batchId,\r\n        string memory onhId,\r\n        string memory lab,\r\n        uint acidityScaled,\r\n        string memory quality,  // Added parameter\r\n        string memory area,     // Added parameter\r\n        uint peroxideValueScaled,\r\n        bool certifiedOrganic\r\n    ) public onlyRole(ONH_ROLE) {\r\n        require(batchId < batches.length, \"Batch does not exist\");\r\n        batches[batchId].isFinalized = true;\r\n        batches[batchId].qualityCheck = QualityCheck(lab, onhId, acidityScaled, quality, area, peroxideValueScaled, certifiedOrganic);\r\n        emit FinalizedBatch(batchId);\r\n    }\r\n\r\n    function getBatch(uint256 batchId) public view returns (Batch memory) {\r\n        require(batchId < batches.length, \"Batch does not exist\");\r\n        return batches[batchId];\r\n    }\r\n\r\n    function getHarvestDetails(uint256 batchId) public view returns (\r\n        string memory farmer,\r\n        string memory date,\r\n        string memory location,\r\n        string memory method\r\n    ) {\r\n        require(batchId < batches.length, \"Batch does not exist\");\r\n        Harvesting memory h = batches[batchId].harvesting;\r\n        return (h.farmer, h.date, h.location, h.method);\r\n    }\r\n\r\n    function assignFarmerRole(address account) public onlyRole(ADMIN_ROLE) {\r\n        grantRole(FARMER_ROLE, account);\r\n    }\r\n\r\n    function assignTransporterRole(address account) public onlyRole(ADMIN_ROLE) {\r\n        grantRole(TRANSPORTER_ROLE, account);\r\n    }\r\n\r\n    function revokeFarmerRole(address account) public onlyRole(ADMIN_ROLE) {\r\n        revokeRole(FARMER_ROLE, account);\r\n    }\r\n\r\n    function revokeTransporterRole(address account) public onlyRole(ADMIN_ROLE) {\r\n        revokeRole(TRANSPORTER_ROLE, account);\r\n    }\r\n\r\n    function getBatchCount() public view returns (uint) {\r\n        return batches.length;\r\n    }\r\n\r\n    function getBatchesByFarmer(address farmer) public view returns (uint[] memory) {\r\n        return farmerBatches[farmer];\r\n    }\r\n\r\n    function getAcidity(uint256 batchId) public view returns (string memory) {\r\n        uint acidityScaled = batches[batchId].qualityCheck.acidity;\r\n        return string(abi.encodePacked(uint2str(acidityScaled / 100), \".\", uint2str(acidityScaled % 100)));\r\n    }\r\n\r\n    function getPeroxideValue(uint256 batchId) public view returns (string memory) {\r\n        uint peroxideValueScaled = batches[batchId].qualityCheck.peroxideValue;\r\n        return string(abi.encodePacked(uint2str(peroxideValueScaled / 10), \".\", uint2str(peroxideValueScaled % 10)));\r\n    }\r\n\r\n    function uint2str(uint _i) internal pure returns (string memory) {\r\n        if (_i == 0) return \"0\";\r\n        uint j = _i;\r\n        uint len;\r\n        while (j != 0) {\r\n            len++;\r\n            j /= 10;\r\n        }\r\n        bytes memory bstr = new bytes(len);\r\n        uint k = len;\r\n        while (_i != 0) {\r\n            bstr[--k] = bytes1(uint8(48 + _i % 10));\r\n            _i /= 10;\r\n        }\r\n        return string(bstr);\r\n    }\r\n\r\n    function getBatchesByTransporter(string memory transporterId) public view returns (uint[] memory) {\r\n        uint count = 0;\r\n        for (uint i = 0; i < batches.length; i++) {\r\n            if (keccak256(bytes(batches[i].transportation.transporterId)) == keccak256(bytes(transporterId))) {\r\n                count++;\r\n            }\r\n        }\r\n        uint[] memory result = new uint[](count);\r\n        uint index = 0;\r\n        for (uint i = 0; i < batches.length; i++) {\r\n            if (keccak256(bytes(batches[i].transportation.transporterId)) == keccak256(bytes(transporterId))) {\r\n                result[index] = i;\r\n                index++;\r\n            }\r\n        }\r\n        return result;\r\n    }\r\n\r\n    function getBatchesByPressingId(string memory pressingId) public view returns (uint[] memory) {\r\n        uint count = 0;\r\n        for (uint i = 0; i < batches.length; i++) {\r\n            if (keccak256(bytes(batches[i].storageBeforePressing.pressingId)) == keccak256(bytes(pressingId))) {\r\n                count++;\r\n            }\r\n        }\r\n\r\n        uint[] memory result = new uint[](count);\r\n        uint index = 0;\r\n        for (uint i = 0; i < batches.length; i++) {\r\n            if (keccak256(bytes(batches[i].storageBeforePressing.pressingId)) == keccak256(bytes(pressingId))) {\r\n                result[index] = i;\r\n                index++;\r\n            }\r\n        }\r\n\r\n        return result;\r\n    }\r\n\r\n    function getBatchesByOnhId(string memory onhId) public view returns (uint[] memory) {\r\n        uint count = 0;\r\n        for (uint i = 0; i < batches.length; i++) {\r\n            if (keccak256(bytes(batches[i].qualityCheck.onhId)) == keccak256(bytes(onhId))) {\r\n                count++;\r\n            }\r\n        }\r\n        \r\n        uint[] memory result = new uint[](count);\r\n        uint index = 0;\r\n        for (uint i = 0; i < batches.length; i++) {\r\n            if (keccak256(bytes(batches[i].qualityCheck.onhId)) == keccak256(bytes(onhId))) {\r\n                result[index] = i;\r\n                index++;\r\n            }\r\n        }\r\n\r\n        return result;\r\n    }\r\n}",
  "sourcePath": "C:\\Users\\USER\\Desktop\\ProjetIA\\my-truffle-project\\contracts\\OliveOilProductionChain.sol",
  "compiler": {
    "name": "solc",
    "version": "0.8.19+commit.7dd6d404.Emscripten.clang"
  },
  "schemaVersion": "3.4.16",
  "updatedAt": "2025-05-08T08:03:16.889Z",
  "networkType": "ethereum",
  "devdoc": {
    "events": {
      "RoleAdminChanged(bytes32,bytes32,bytes32)": {
        "details": "Emitted when `newAdminRole` is set as ``role``'s admin role, replacing `previousAdminRole` `DEFAULT_ADMIN_ROLE` is the starting admin for all roles, despite {RoleAdminChanged} not being emitted signaling this. _Available since v3.1._"
      },
      "RoleGranted(bytes32,address,address)": {
        "details": "Emitted when `account` is granted `role`. `sender` is the account that originated the contract call, an admin role bearer except when using {AccessControl-_setupRole}."
      },
      "RoleRevoked(bytes32,address,address)": {
        "details": "Emitted when `account` is revoked `role`. `sender` is the account that originated the contract call:   - if using `revokeRole`, it is the admin role bearer   - if using `renounceRole`, it is the role bearer (i.e. `account`)"
      }
    },
    "kind": "dev",
    "methods": {
      "getRoleAdmin(bytes32)": {
        "details": "Returns the admin role that controls `role`. See {grantRole} and {revokeRole}. To change a role's admin, use {_setRoleAdmin}."
      },
      "grantRole(bytes32,address)": {
        "details": "Grants `role` to `account`. If `account` had not been already granted `role`, emits a {RoleGranted} event. Requirements: - the caller must have ``role``'s admin role. May emit a {RoleGranted} event."
      },
      "hasRole(bytes32,address)": {
        "details": "Returns `true` if `account` has been granted `role`."
      },
      "renounceRole(bytes32,address)": {
        "details": "Revokes `role` from the calling account. Roles are often managed via {grantRole} and {revokeRole}: this function's purpose is to provide a mechanism for accounts to lose their privileges if they are compromised (such as when a trusted device is misplaced). If the calling account had been revoked `role`, emits a {RoleRevoked} event. Requirements: - the caller must be `account`. May emit a {RoleRevoked} event."
      },
      "revokeRole(bytes32,address)": {
        "details": "Revokes `role` from `account`. If `account` had been granted `role`, emits a {RoleRevoked} event. Requirements: - the caller must have ``role``'s admin role. May emit a {RoleRevoked} event."
      },
      "supportsInterface(bytes4)": {
        "details": "See {IERC165-supportsInterface}."
      }
    },
    "version": 1
  },
  "userdoc": {
    "kind": "user",
    "methods": {},
    "version": 1
  }
}